{
  "contractName": "SupplyChain",
  "abi": [
    {
      "inputs": [],
      "stateMutability": "nonpayable",
      "type": "constructor"
    },
    {
      "anonymous": false,
      "inputs": [
        {
          "indexed": true,
          "internalType": "address",
          "name": "account",
          "type": "address"
        }
      ],
      "name": "ConsumerAdded",
      "type": "event"
    },
    {
      "anonymous": false,
      "inputs": [
        {
          "indexed": true,
          "internalType": "address",
          "name": "account",
          "type": "address"
        }
      ],
      "name": "ConsumerRemoved",
      "type": "event"
    },
    {
      "anonymous": false,
      "inputs": [
        {
          "indexed": true,
          "internalType": "address",
          "name": "account",
          "type": "address"
        }
      ],
      "name": "DistributorAdded",
      "type": "event"
    },
    {
      "anonymous": false,
      "inputs": [
        {
          "indexed": true,
          "internalType": "address",
          "name": "account",
          "type": "address"
        }
      ],
      "name": "DistributorRemoved",
      "type": "event"
    },
    {
      "anonymous": false,
      "inputs": [
        {
          "indexed": true,
          "internalType": "address",
          "name": "account",
          "type": "address"
        }
      ],
      "name": "FarmerAdded",
      "type": "event"
    },
    {
      "anonymous": false,
      "inputs": [
        {
          "indexed": true,
          "internalType": "address",
          "name": "account",
          "type": "address"
        }
      ],
      "name": "FarmerRemoved",
      "type": "event"
    },
    {
      "anonymous": false,
      "inputs": [
        {
          "indexed": true,
          "internalType": "uint256",
          "name": "upc",
          "type": "uint256"
        }
      ],
      "name": "ForSale",
      "type": "event"
    },
    {
      "anonymous": false,
      "inputs": [
        {
          "indexed": true,
          "internalType": "uint256",
          "name": "upc",
          "type": "uint256"
        }
      ],
      "name": "Harvested",
      "type": "event"
    },
    {
      "anonymous": false,
      "inputs": [
        {
          "indexed": true,
          "internalType": "uint256",
          "name": "upc",
          "type": "uint256"
        }
      ],
      "name": "Packed",
      "type": "event"
    },
    {
      "anonymous": false,
      "inputs": [
        {
          "indexed": true,
          "internalType": "uint256",
          "name": "upc",
          "type": "uint256"
        }
      ],
      "name": "Processed",
      "type": "event"
    },
    {
      "anonymous": false,
      "inputs": [
        {
          "indexed": true,
          "internalType": "uint256",
          "name": "upc",
          "type": "uint256"
        }
      ],
      "name": "Purchased",
      "type": "event"
    },
    {
      "anonymous": false,
      "inputs": [
        {
          "indexed": true,
          "internalType": "uint256",
          "name": "upc",
          "type": "uint256"
        }
      ],
      "name": "Received",
      "type": "event"
    },
    {
      "anonymous": false,
      "inputs": [
        {
          "indexed": true,
          "internalType": "address",
          "name": "account",
          "type": "address"
        }
      ],
      "name": "RetailerAdded",
      "type": "event"
    },
    {
      "anonymous": false,
      "inputs": [
        {
          "indexed": true,
          "internalType": "address",
          "name": "account",
          "type": "address"
        }
      ],
      "name": "RetailerRemoved",
      "type": "event"
    },
    {
      "anonymous": false,
      "inputs": [
        {
          "indexed": true,
          "internalType": "uint256",
          "name": "upc",
          "type": "uint256"
        }
      ],
      "name": "Shipped",
      "type": "event"
    },
    {
      "anonymous": false,
      "inputs": [
        {
          "indexed": true,
          "internalType": "uint256",
          "name": "upc",
          "type": "uint256"
        }
      ],
      "name": "Sold",
      "type": "event"
    },
    {
      "anonymous": false,
      "inputs": [
        {
          "indexed": true,
          "internalType": "address",
          "name": "oldOwner",
          "type": "address"
        },
        {
          "indexed": true,
          "internalType": "address",
          "name": "newOwner",
          "type": "address"
        }
      ],
      "name": "TransferOwnership",
      "type": "event"
    },
    {
      "inputs": [
        {
          "internalType": "address",
          "name": "account",
          "type": "address"
        }
      ],
      "name": "addConsumer",
      "outputs": [],
      "stateMutability": "nonpayable",
      "type": "function"
    },
    {
      "inputs": [
        {
          "internalType": "address",
          "name": "account",
          "type": "address"
        }
      ],
      "name": "addDistributor",
      "outputs": [],
      "stateMutability": "nonpayable",
      "type": "function"
    },
    {
      "inputs": [
        {
          "internalType": "address",
          "name": "account",
          "type": "address"
        }
      ],
      "name": "addFarmer",
      "outputs": [],
      "stateMutability": "nonpayable",
      "type": "function"
    },
    {
      "inputs": [
        {
          "internalType": "address",
          "name": "account",
          "type": "address"
        }
      ],
      "name": "addRetailer",
      "outputs": [],
      "stateMutability": "nonpayable",
      "type": "function"
    },
    {
      "inputs": [
        {
          "internalType": "address",
          "name": "account",
          "type": "address"
        }
      ],
      "name": "isConsumer",
      "outputs": [
        {
          "internalType": "bool",
          "name": "",
          "type": "bool"
        }
      ],
      "stateMutability": "view",
      "type": "function"
    },
    {
      "inputs": [
        {
          "internalType": "address",
          "name": "account",
          "type": "address"
        }
      ],
      "name": "isDistributor",
      "outputs": [
        {
          "internalType": "bool",
          "name": "",
          "type": "bool"
        }
      ],
      "stateMutability": "view",
      "type": "function"
    },
    {
      "inputs": [
        {
          "internalType": "address",
          "name": "account",
          "type": "address"
        }
      ],
      "name": "isFarmer",
      "outputs": [
        {
          "internalType": "bool",
          "name": "",
          "type": "bool"
        }
      ],
      "stateMutability": "view",
      "type": "function"
    },
    {
      "inputs": [],
      "name": "isOwner",
      "outputs": [
        {
          "internalType": "bool",
          "name": "",
          "type": "bool"
        }
      ],
      "stateMutability": "view",
      "type": "function"
    },
    {
      "inputs": [
        {
          "internalType": "address",
          "name": "account",
          "type": "address"
        }
      ],
      "name": "isRetailer",
      "outputs": [
        {
          "internalType": "bool",
          "name": "",
          "type": "bool"
        }
      ],
      "stateMutability": "view",
      "type": "function"
    },
    {
      "inputs": [],
      "name": "owner",
      "outputs": [
        {
          "internalType": "address",
          "name": "",
          "type": "address"
        }
      ],
      "stateMutability": "view",
      "type": "function"
    },
    {
      "inputs": [],
      "name": "renounceConsumer",
      "outputs": [],
      "stateMutability": "nonpayable",
      "type": "function"
    },
    {
      "inputs": [],
      "name": "renounceDistributor",
      "outputs": [],
      "stateMutability": "nonpayable",
      "type": "function"
    },
    {
      "inputs": [],
      "name": "renounceFarmer",
      "outputs": [],
      "stateMutability": "nonpayable",
      "type": "function"
    },
    {
      "inputs": [],
      "name": "renounceOwnership",
      "outputs": [],
      "stateMutability": "nonpayable",
      "type": "function"
    },
    {
      "inputs": [],
      "name": "renounceRetailer",
      "outputs": [],
      "stateMutability": "nonpayable",
      "type": "function"
    },
    {
      "inputs": [],
      "name": "sku",
      "outputs": [
        {
          "internalType": "uint256",
          "name": "",
          "type": "uint256"
        }
      ],
      "stateMutability": "view",
      "type": "function"
    },
    {
      "inputs": [
        {
          "internalType": "address",
          "name": "newOwner",
          "type": "address"
        }
      ],
      "name": "transferOwnership",
      "outputs": [],
      "stateMutability": "nonpayable",
      "type": "function"
    },
    {
      "inputs": [],
      "name": "kill",
      "outputs": [],
      "stateMutability": "nonpayable",
      "type": "function"
    },
    {
      "inputs": [
        {
          "internalType": "uint256",
          "name": "_upc",
          "type": "uint256"
        },
        {
          "internalType": "address",
          "name": "_originFarmerID",
          "type": "address"
        },
        {
          "internalType": "string",
          "name": "_originFarmName",
          "type": "string"
        },
        {
          "internalType": "string",
          "name": "_originFarmInformation",
          "type": "string"
        },
        {
          "internalType": "string",
          "name": "_originFarmLatitude",
          "type": "string"
        },
        {
          "internalType": "string",
          "name": "_originFarmLongitude",
          "type": "string"
        },
        {
          "internalType": "string",
          "name": "_productNotes",
          "type": "string"
        },
        {
          "internalType": "string",
          "name": "_farmerDocumentID",
          "type": "string"
        }
      ],
      "name": "harvestItem",
      "outputs": [],
      "stateMutability": "nonpayable",
      "type": "function"
    },
    {
      "inputs": [
        {
          "internalType": "uint256",
          "name": "_upc",
          "type": "uint256"
        }
      ],
      "name": "processItem",
      "outputs": [],
      "stateMutability": "nonpayable",
      "type": "function"
    },
    {
      "inputs": [
        {
          "internalType": "uint256",
          "name": "_upc",
          "type": "uint256"
        }
      ],
      "name": "packItem",
      "outputs": [],
      "stateMutability": "nonpayable",
      "type": "function"
    },
    {
      "inputs": [
        {
          "internalType": "uint256",
          "name": "_upc",
          "type": "uint256"
        },
        {
          "internalType": "uint256",
          "name": "_price",
          "type": "uint256"
        }
      ],
      "name": "sellItem",
      "outputs": [],
      "stateMutability": "nonpayable",
      "type": "function"
    },
    {
      "inputs": [
        {
          "internalType": "uint256",
          "name": "_upc",
          "type": "uint256"
        }
      ],
      "name": "buyItem",
      "outputs": [],
      "stateMutability": "payable",
      "type": "function"
    },
    {
      "inputs": [
        {
          "internalType": "uint256",
          "name": "_upc",
          "type": "uint256"
        }
      ],
      "name": "shipItem",
      "outputs": [],
      "stateMutability": "nonpayable",
      "type": "function"
    },
    {
      "inputs": [
        {
          "internalType": "uint256",
          "name": "_upc",
          "type": "uint256"
        }
      ],
      "name": "receiveItem",
      "outputs": [],
      "stateMutability": "nonpayable",
      "type": "function"
    },
    {
      "inputs": [
        {
          "internalType": "uint256",
          "name": "_upc",
          "type": "uint256"
        }
      ],
      "name": "purchaseItem",
      "outputs": [],
      "stateMutability": "nonpayable",
      "type": "function"
    },
    {
      "inputs": [
        {
          "internalType": "uint256",
          "name": "_upc",
          "type": "uint256"
        }
      ],
      "name": "fetchItemBufferOne",
      "outputs": [
        {
          "internalType": "uint256",
          "name": "itemSKU",
          "type": "uint256"
        },
        {
          "internalType": "uint256",
          "name": "itemUPC",
          "type": "uint256"
        },
        {
          "internalType": "address",
          "name": "ownerID",
          "type": "address"
        },
        {
          "internalType": "address",
          "name": "originFarmerID",
          "type": "address"
        },
        {
          "internalType": "string",
          "name": "originFarmName",
          "type": "string"
        },
        {
          "internalType": "string",
          "name": "originFarmInformation",
          "type": "string"
        },
        {
          "internalType": "string",
          "name": "originFarmLatitude",
          "type": "string"
        },
        {
          "internalType": "string",
          "name": "originFarmLongitude",
          "type": "string"
        }
      ],
      "stateMutability": "view",
      "type": "function"
    },
    {
      "inputs": [
        {
          "internalType": "uint256",
          "name": "_upc",
          "type": "uint256"
        }
      ],
      "name": "fetchItemBufferTwo",
      "outputs": [
        {
          "internalType": "uint256",
          "name": "itemSKU",
          "type": "uint256"
        },
        {
          "internalType": "uint256",
          "name": "itemUPC",
          "type": "uint256"
        },
        {
          "internalType": "uint256",
          "name": "productID",
          "type": "uint256"
        },
        {
          "internalType": "string",
          "name": "productNotes",
          "type": "string"
        },
        {
          "internalType": "uint256",
          "name": "productPrice",
          "type": "uint256"
        },
        {
          "internalType": "uint256",
          "name": "itemState",
          "type": "uint256"
        },
        {
          "internalType": "address",
          "name": "distributorID",
          "type": "address"
        },
        {
          "internalType": "address",
          "name": "retailerID",
          "type": "address"
        },
        {
          "internalType": "address",
          "name": "consumerID",
          "type": "address"
        },
        {
          "internalType": "string",
          "name": "farmerDocumentID",
          "type": "string"
        }
      ],
      "stateMutability": "view",
      "type": "function"
    },
    {
      "inputs": [],
      "name": "getAccountTypes",
      "outputs": [
        {
          "internalType": "bool",
          "name": "",
          "type": "bool"
        },
        {
          "internalType": "bool",
          "name": "",
          "type": "bool"
        },
        {
          "internalType": "bool",
          "name": "",
          "type": "bool"
        },
        {
          "internalType": "bool",
          "name": "",
          "type": "bool"
        }
      ],
      "stateMutability": "view",
      "type": "function"
    }
  ],
  "bytecode": "0x60806040523480156200001157600080fd5b50600080546001600160a01b03191633178082556040516001600160a01b039190911691907f5c486528ec3e3f0ea91181cff8116f02bfa350e03b8b6f12e00765adbb5af85c908290a3620000663362000097565b6200007133620000e9565b6200007c336200013b565b62000087336200018d565b6001600681905560055562000265565b620000b2816001620001df60201b620045411790919060201c565b6040516001600160a01b038216907f28b26e7a3d20aedbc5f8f2ebf7da671c0491723a2b78f47a097b0e46dee0714290600090a250565b62000104816002620001df60201b620045411790919060201c565b6040516001600160a01b038216907fddbf200aa634dc3fb81cfd68583dd1040d1c751d335e1d86b631bde3e977fea890600090a250565b62000156816003620001df60201b620045411790919060201c565b6040516001600160a01b038216907f2e0ded4123377a3c2bc9a26f1717655a129e2f20752924d42e730ec89c83dbd090600090a250565b620001a8816004620001df60201b620045411790919060201c565b6040516001600160a01b038216907f71ae26cad02663e3d92efd6ec56031a80d74a20c0ab4183faa8bf262261c9baa90600090a250565b6001600160a01b038116620001f357600080fd5b620001ff82826200022f565b156200020a57600080fd5b6001600160a01b0316600090815260209190915260409020805460ff19166001179055565b60006001600160a01b0382166200024557600080fd5b506001600160a01b03166000908152602091909152604090205460ff1690565b614f8580620002756000396000f3fe6080604052600436106101825760003560e01c8063834ff739116100d7578063c08ba09a11610085578063c08ba09a1461042b578063d38ea5bf1461044b578063db0e6a2f1461046b578063e7fb74c714610480578063f1173ae214610493578063f2fde38b146104b8578063f30fc480146104d8578063f61c899a146104f857610182565b8063834ff739146103545780638da5cb5b146103745780638ec4f505146103965780638f0c86fa146103b65780638f32d59b146103d6578063a26be999146103eb578063b94290691461040b57610182565b8063644241db11610134578063644241db1461026b57806366225ff914610280578063715018a6146102b65780637250e224146102cb57806377c45913146102eb57806380c3f96d1461031f57806380fc0ce41461033f57610182565b8063112940f9146101875780632d923561146101a957806341c0e1b5146101c95780634462f40c146101de57806349dae766146102095780635da09b881461022957806361e6982d14610256575b600080fd5b34801561019357600080fd5b506101a76101a23660046149b9565b610518565b005b3480156101b557600080fd5b506101a76101c4366004614afc565b610524565b3480156101d557600080fd5b506101a7610c3e565b3480156101ea57600080fd5b506101f3610c62565b6040516102009190614db1565b60405180910390f35b34801561021557600080fd5b506101a76102243660046149da565b610c68565b34801561023557600080fd5b506102496102443660046149b9565b611371565b6040516102009190614b7f565b34801561026257600080fd5b506101a7611386565b34801561027757600080fd5b506101a76113b4565b34801561028c57600080fd5b506102a061029b3660046149da565b6113e2565b6040516102009a99989796959493929190614e3f565b3480156102c257600080fd5b506101a76118cc565b3480156102d757600080fd5b506101a76102e63660046149b9565b611927565b3480156102f757600080fd5b5061030b6103063660046149da565b611930565b604051610200989796959493929190614dba565b34801561032b57600080fd5b506101a761033a3660046149b9565b611de2565b34801561034b57600080fd5b506101a7611deb565b34801561036057600080fd5b5061024961036f3660046149b9565b611e19565b34801561038057600080fd5b50610389611e26565b6040516102009190614b6b565b3480156103a257600080fd5b506101a76103b13660046149b9565b611e35565b3480156103c257600080fd5b506102496103d13660046149b9565b611e3e565b3480156103e257600080fd5b50610249611e4b565b3480156103f757600080fd5b506101a76104063660046149da565b611e5c565b34801561041757600080fd5b506102496104263660046149b9565b612537565b34801561043757600080fd5b506101a76104463660046149f2565b612544565b34801561045757600080fd5b506101a76104663660046149da565b612819565b34801561047757600080fd5b506101a7612ef4565b6101a761048e3660046149da565b612f22565b34801561049f57600080fd5b506104a861370c565b6040516102009493929190614b8a565b3480156104c457600080fd5b506101a76104d33660046149b9565b613754565b3480156104e457600080fd5b506101a76104f33660046149da565b61376e565b34801561050457600080fd5b506101a76105133660046149da565b613e78565b6105218161458d565b50565b61052d33612537565b6105525760405162461bcd60e51b815260040161054990614cc9565b60405180910390fd5b6000828152600760205260409020600301546001600160a01b031633811461058c5760405162461bcd60e51b815260040161054990614bab565b8260026000828152600760208190526040909120600b015460ff16908111156105c557634e487b7160e01b600052602160045260246000fd5b146105e25760405162461bcd60e51b815260040161054990614d66565b60008481526007602090815260408083208151610200810183528154815260018201549381019390935260028101546001600160a01b03908116928401929092526003810154909116606083015260048101805460808401919061064590614ee8565b80601f016020809104026020016040519081016040528092919081815260200182805461067190614ee8565b80156106be5780601f10610693576101008083540402835291602001916106be565b820191906000526020600020905b8154815290600101906020018083116106a157829003601f168201915b505050505081526020016005820180546106d790614ee8565b80601f016020809104026020016040519081016040528092919081815260200182805461070390614ee8565b80156107505780601f1061072557610100808354040283529160200191610750565b820191906000526020600020905b81548152906001019060200180831161073357829003601f168201915b5050505050815260200160068201805461076990614ee8565b80601f016020809104026020016040519081016040528092919081815260200182805461079590614ee8565b80156107e25780601f106107b7576101008083540402835291602001916107e2565b820191906000526020600020905b8154815290600101906020018083116107c557829003601f168201915b505050505081526020016007820180546107fb90614ee8565b80601f016020809104026020016040519081016040528092919081815260200182805461082790614ee8565b80156108745780601f1061084957610100808354040283529160200191610874565b820191906000526020600020905b81548152906001019060200180831161085757829003601f168201915b505050505081526020016008820154815260200160098201805461089790614ee8565b80601f01602080910402602001604051908101604052809291908181526020018280546108c390614ee8565b80156109105780601f106108e557610100808354040283529160200191610910565b820191906000526020600020905b8154815290600101906020018083116108f357829003601f168201915b5050509183525050600a8201546020820152600b82015460409091019060ff16600781111561094f57634e487b7160e01b600052602160045260246000fd5b600781111561096e57634e487b7160e01b600052602160045260246000fd5b8152600b8201546001600160a01b0361010090910481166020830152600c83015481166040830152600d830154166060820152600e820180546080909201916109b690614ee8565b80601f01602080910402602001604051908101604052809291908181526020018280546109e290614ee8565b8015610a2f5780601f10610a0457610100808354040283529160200191610a2f565b820191906000526020600020905b815481529060010190602001808311610a1257829003601f168201915b5050509190925250505061014081018590529050600361016082018190525060008581526007602090815260409182902083518155818401516001820155918301516002830180546001600160a01b039283166001600160a01b031991821617909155606085015160038501805491909316911617905560808301518051849392610ac1926004850192910190614888565b5060a08201518051610add916005840191602090910190614888565b5060c08201518051610af9916006840191602090910190614888565b5060e08201518051610b15916007840191602090910190614888565b5061010082015160088201556101208201518051610b3d916009840191602090910190614888565b50610140820151600a820155610160820151600b8201805460ff19166001836007811115610b7b57634e487b7160e01b600052602160045260246000fd5b0217905550610180820151600b820180546001600160a01b0392831661010002610100600160a81b03199091161790556101a0830151600c830180549183166001600160a01b03199283161790556101c0840151600d840180549190931691161790556101e08201518051610bfa91600e840191602090910190614888565b50505060008581526007602052604080822060010154905190917fa96ae0fc3224ebd79eebfe54bd130cc9cb94416cddd1f2386115e00b7253246891a25050505050565b6000546001600160a01b0316331415610c60576000546001600160a01b031680ff5b565b60065481565b610c7133612537565b610c8d5760405162461bcd60e51b815260040161054990614cc9565b6000818152600760205260409020600301546001600160a01b0316338114610cc75760405162461bcd60e51b815260040161054990614bab565b81600080828152600760208190526040909120600b015460ff1690811115610cff57634e487b7160e01b600052602160045260246000fd5b14610d1c5760405162461bcd60e51b815260040161054990614ca2565b60008381526007602090815260408083208151610200810183528154815260018201549381019390935260028101546001600160a01b039081169284019290925260038101549091166060830152600481018054608084019190610d7f90614ee8565b80601f0160208091040260200160405190810160405280929190818152602001828054610dab90614ee8565b8015610df85780601f10610dcd57610100808354040283529160200191610df8565b820191906000526020600020905b815481529060010190602001808311610ddb57829003601f168201915b50505050508152602001600582018054610e1190614ee8565b80601f0160208091040260200160405190810160405280929190818152602001828054610e3d90614ee8565b8015610e8a5780601f10610e5f57610100808354040283529160200191610e8a565b820191906000526020600020905b815481529060010190602001808311610e6d57829003601f168201915b50505050508152602001600682018054610ea390614ee8565b80601f0160208091040260200160405190810160405280929190818152602001828054610ecf90614ee8565b8015610f1c5780601f10610ef157610100808354040283529160200191610f1c565b820191906000526020600020905b815481529060010190602001808311610eff57829003601f168201915b50505050508152602001600782018054610f3590614ee8565b80601f0160208091040260200160405190810160405280929190818152602001828054610f6190614ee8565b8015610fae5780601f10610f8357610100808354040283529160200191610fae565b820191906000526020600020905b815481529060010190602001808311610f9157829003601f168201915b5050505050815260200160088201548152602001600982018054610fd190614ee8565b80601f0160208091040260200160405190810160405280929190818152602001828054610ffd90614ee8565b801561104a5780601f1061101f5761010080835404028352916020019161104a565b820191906000526020600020905b81548152906001019060200180831161102d57829003601f168201915b5050509183525050600a8201546020820152600b82015460409091019060ff16600781111561108957634e487b7160e01b600052602160045260246000fd5b60078111156110a857634e487b7160e01b600052602160045260246000fd5b8152600b8201546001600160a01b0361010090910481166020830152600c83015481166040830152600d830154166060820152600e820180546080909201916110f090614ee8565b80601f016020809104026020016040519081016040528092919081815260200182805461111c90614ee8565b80156111695780601f1061113e57610100808354040283529160200191611169565b820191906000526020600020905b81548152906001019060200180831161114c57829003601f168201915b5050509190925250919250600191505061016082018190525060008481526007602090815260409182902083518155818401516001820155918301516002830180546001600160a01b039283166001600160a01b0319918216179091556060850151600385018054919093169116179055608083015180518493926111f5926004850192910190614888565b5060a08201518051611211916005840191602090910190614888565b5060c0820151805161122d916006840191602090910190614888565b5060e08201518051611249916007840191602090910190614888565b5061010082015160088201556101208201518051611271916009840191602090910190614888565b50610140820151600a820155610160820151600b8201805460ff191660018360078111156112af57634e487b7160e01b600052602160045260246000fd5b0217905550610180820151600b820180546001600160a01b0392831661010002610100600160a81b03199091161790556101a0830151600c830180549183166001600160a01b03199283161790556101c0840151600d840180549190931691161790556101e0820151805161132e91600e840191602090910190614888565b50505060008481526007602052604080822060010154905190917f5afe3b1bf87069693c075da5c22a98d63d1aef98a30dbbe538d0781a98b77ee591a250505050565b600061137e6004836145cf565b90505b919050565b61138f33611e19565b6113ab5760405162461bcd60e51b815260040161054990614d18565b610c6033614604565b6113bd33611e3e565b6113d95760405162461bcd60e51b815260040161054990614bd3565b610c6033614646565b60008181526007602090815260408083208151610200810183528154815260018201549381019390935260028101546001600160a01b039081169284019290925260038101549091166060838101919091526004820180548594859485938493849384938493899385939291608084019161145c90614ee8565b80601f016020809104026020016040519081016040528092919081815260200182805461148890614ee8565b80156114d55780601f106114aa576101008083540402835291602001916114d5565b820191906000526020600020905b8154815290600101906020018083116114b857829003601f168201915b505050505081526020016005820180546114ee90614ee8565b80601f016020809104026020016040519081016040528092919081815260200182805461151a90614ee8565b80156115675780601f1061153c57610100808354040283529160200191611567565b820191906000526020600020905b81548152906001019060200180831161154a57829003601f168201915b5050505050815260200160068201805461158090614ee8565b80601f01602080910402602001604051908101604052809291908181526020018280546115ac90614ee8565b80156115f95780601f106115ce576101008083540402835291602001916115f9565b820191906000526020600020905b8154815290600101906020018083116115dc57829003601f168201915b5050505050815260200160078201805461161290614ee8565b80601f016020809104026020016040519081016040528092919081815260200182805461163e90614ee8565b801561168b5780601f106116605761010080835404028352916020019161168b565b820191906000526020600020905b81548152906001019060200180831161166e57829003601f168201915b50505050508152602001600882015481526020016009820180546116ae90614ee8565b80601f01602080910402602001604051908101604052809291908181526020018280546116da90614ee8565b80156117275780601f106116fc57610100808354040283529160200191611727565b820191906000526020600020905b81548152906001019060200180831161170a57829003601f168201915b5050509183525050600a8201546020820152600b82015460409091019060ff16600781111561176657634e487b7160e01b600052602160045260246000fd5b600781111561178557634e487b7160e01b600052602160045260246000fd5b8152600b8201546001600160a01b0361010090910481166020830152600c83015481166040830152600d830154166060820152600e820180546080909201916117cd90614ee8565b80601f01602080910402602001604051908101604052809291908181526020018280546117f990614ee8565b80156118465780601f1061181b57610100808354040283529160200191611846565b820191906000526020600020905b81548152906001019060200180831161182957829003601f168201915b505050505081525050905080600001519a5080602001519950806101000151985080610120015197508061014001519650806101600151600781111561189c57634e487b7160e01b600052602160045260246000fd5b95508061018001519450806101a001519350806101c001519250806101e001519150509193959799509193959799565b6118d4611e4b565b6118dd57600080fd5b600080546040516001600160a01b03909116907f5c486528ec3e3f0ea91181cff8116f02bfa350e03b8b6f12e00765adbb5af85c908390a3600080546001600160a01b0319169055565b61052181614688565b60008181526007602090815260408083208151610200810183528154815260018201549381019390935260028101546001600160a01b039081169284019290925260038101549091166060838101919091526004820180548594859485949384938493849388939192909160808401916119a990614ee8565b80601f01602080910402602001604051908101604052809291908181526020018280546119d590614ee8565b8015611a225780601f106119f757610100808354040283529160200191611a22565b820191906000526020600020905b815481529060010190602001808311611a0557829003601f168201915b50505050508152602001600582018054611a3b90614ee8565b80601f0160208091040260200160405190810160405280929190818152602001828054611a6790614ee8565b8015611ab45780601f10611a8957610100808354040283529160200191611ab4565b820191906000526020600020905b815481529060010190602001808311611a9757829003601f168201915b50505050508152602001600682018054611acd90614ee8565b80601f0160208091040260200160405190810160405280929190818152602001828054611af990614ee8565b8015611b465780601f10611b1b57610100808354040283529160200191611b46565b820191906000526020600020905b815481529060010190602001808311611b2957829003601f168201915b50505050508152602001600782018054611b5f90614ee8565b80601f0160208091040260200160405190810160405280929190818152602001828054611b8b90614ee8565b8015611bd85780601f10611bad57610100808354040283529160200191611bd8565b820191906000526020600020905b815481529060010190602001808311611bbb57829003601f168201915b5050505050815260200160088201548152602001600982018054611bfb90614ee8565b80601f0160208091040260200160405190810160405280929190818152602001828054611c2790614ee8565b8015611c745780601f10611c4957610100808354040283529160200191611c74565b820191906000526020600020905b815481529060010190602001808311611c5757829003601f168201915b5050509183525050600a8201546020820152600b82015460409091019060ff166007811115611cb357634e487b7160e01b600052602160045260246000fd5b6007811115611cd257634e487b7160e01b600052602160045260246000fd5b8152600b8201546001600160a01b0361010090910481166020830152600c83015481166040830152600d830154166060820152600e82018054608090920191611d1a90614ee8565b80601f0160208091040260200160405190810160405280929190818152602001828054611d4690614ee8565b8015611d935780601f10611d6857610100808354040283529160200191611d93565b820191906000526020600020905b815481529060010190602001808311611d7657829003601f168201915b505050505081525050905080600001519850806020015197508060400151965080606001519550806080015194508060a0015193508060c0015192508060e00151915050919395975091939597565b610521816146ca565b611df433612537565b611e105760405162461bcd60e51b815260040161054990614cc9565b610c603361470c565b600061137e6001836145cf565b6000546001600160a01b031690565b6105218161474e565b600061137e6002836145cf565b6000546001600160a01b0316331490565b611e6533611371565b611e815760405162461bcd60e51b815260040161054990614c50565b8060056000828152600760208190526040909120600b015460ff1690811115611eba57634e487b7160e01b600052602160045260246000fd5b14611ed75760405162461bcd60e51b815260040161054990614c2b565b60008281526007602090815260408083208151610200810183528154815260018201549381019390935260028101546001600160a01b039081169284019290925260038101549091166060830152600481018054608084019190611f3a90614ee8565b80601f0160208091040260200160405190810160405280929190818152602001828054611f6690614ee8565b8015611fb35780601f10611f8857610100808354040283529160200191611fb3565b820191906000526020600020905b815481529060010190602001808311611f9657829003601f168201915b50505050508152602001600582018054611fcc90614ee8565b80601f0160208091040260200160405190810160405280929190818152602001828054611ff890614ee8565b80156120455780601f1061201a57610100808354040283529160200191612045565b820191906000526020600020905b81548152906001019060200180831161202857829003601f168201915b5050505050815260200160068201805461205e90614ee8565b80601f016020809104026020016040519081016040528092919081815260200182805461208a90614ee8565b80156120d75780601f106120ac576101008083540402835291602001916120d7565b820191906000526020600020905b8154815290600101906020018083116120ba57829003601f168201915b505050505081526020016007820180546120f090614ee8565b80601f016020809104026020016040519081016040528092919081815260200182805461211c90614ee8565b80156121695780601f1061213e57610100808354040283529160200191612169565b820191906000526020600020905b81548152906001019060200180831161214c57829003601f168201915b505050505081526020016008820154815260200160098201805461218c90614ee8565b80601f01602080910402602001604051908101604052809291908181526020018280546121b890614ee8565b80156122055780601f106121da57610100808354040283529160200191612205565b820191906000526020600020905b8154815290600101906020018083116121e857829003601f168201915b5050509183525050600a8201546020820152600b82015460409091019060ff16600781111561224457634e487b7160e01b600052602160045260246000fd5b600781111561226357634e487b7160e01b600052602160045260246000fd5b8152600b8201546001600160a01b0361010090910481166020830152600c83015481166040830152600d830154166060820152600e820180546080909201916122ab90614ee8565b80601f01602080910402602001604051908101604052809291908181526020018280546122d790614ee8565b80156123245780601f106122f957610100808354040283529160200191612324565b820191906000526020600020905b81548152906001019060200180831161230757829003601f168201915b50505091909252505033604083018190526101a0830152509050600661016082018190525060008381526007602090815260409182902083518155818401516001820155918301516002830180546001600160a01b039283166001600160a01b0319918216179091556060850151600385018054919093169116179055608083015180518493926123bc926004850192910190614888565b5060a082015180516123d8916005840191602090910190614888565b5060c082015180516123f4916006840191602090910190614888565b5060e08201518051612410916007840191602090910190614888565b5061010082015160088201556101208201518051612438916009840191602090910190614888565b50610140820151600a820155610160820151600b8201805460ff1916600183600781111561247657634e487b7160e01b600052602160045260246000fd5b0217905550610180820151600b820180546001600160a01b0392831661010002610100600160a81b03199091161790556101a0830151600c830180549183166001600160a01b03199283161790556101c0840151600d840180549190931691161790556101e082015180516124f591600e840191602090910190614888565b50505060008381526007602052604080822060010154905190917fa8142743f8f70a4c26f3691cf4ed59718381fb2f18070ec52be1f1022d85555791a2505050565b600061137e6003836145cf565b61254d33612537565b6125695760405162461bcd60e51b815260040161054990614cc9565b6040518061020001604052806006548152602001898152602001336001600160a01b03168152602001886001600160a01b03168152602001878152602001868152602001858152602001848152602001896006546125c79190614eb9565b815260200183815260200160008152602001600060078111156125fa57634e487b7160e01b600052602160045260246000fd5b8152600060208083018290526040808401839052606080850184905260809485018790528d8452600783529281902085518155858301516001820155908501516002820180546001600160a01b03199081166001600160a01b039384161790915593860151600383018054909516911617909255918301518051919261268892600485019290910190614888565b5060a082015180516126a4916005840191602090910190614888565b5060c082015180516126c0916006840191602090910190614888565b5060e082015180516126dc916007840191602090910190614888565b5061010082015160088201556101208201518051612704916009840191602090910190614888565b50610140820151600a820155610160820151600b8201805460ff1916600183600781111561274257634e487b7160e01b600052602160045260246000fd5b0217905550610180820151600b820180546001600160a01b0392831661010002610100600160a81b03199091161790556101a0830151600c830180549183166001600160a01b03199283161790556101c0840151600d840180549190931691161790556101e082015180516127c191600e840191602090910190614888565b50506006546127d291506001614eb9565b60065560008881526007602052604080822060010154905190917f8e55ccfc9778ff8eba1646d765cf1982537ce0f9257054a17b48aad74525018391a25050505050505050565b8060066000828152600760208190526040909120600b015460ff169081111561285257634e487b7160e01b600052602160045260246000fd5b1461286f5760405162461bcd60e51b815260040161054990614c7c565b61287833611e19565b6128945760405162461bcd60e51b815260040161054990614d18565b60008281526007602090815260408083208151610200810183528154815260018201549381019390935260028101546001600160a01b0390811692840192909252600381015490911660608301526004810180546080840191906128f790614ee8565b80601f016020809104026020016040519081016040528092919081815260200182805461292390614ee8565b80156129705780601f1061294557610100808354040283529160200191612970565b820191906000526020600020905b81548152906001019060200180831161295357829003601f168201915b5050505050815260200160058201805461298990614ee8565b80601f01602080910402602001604051908101604052809291908181526020018280546129b590614ee8565b8015612a025780601f106129d757610100808354040283529160200191612a02565b820191906000526020600020905b8154815290600101906020018083116129e557829003601f168201915b50505050508152602001600682018054612a1b90614ee8565b80601f0160208091040260200160405190810160405280929190818152602001828054612a4790614ee8565b8015612a945780601f10612a6957610100808354040283529160200191612a94565b820191906000526020600020905b815481529060010190602001808311612a7757829003601f168201915b50505050508152602001600782018054612aad90614ee8565b80601f0160208091040260200160405190810160405280929190818152602001828054612ad990614ee8565b8015612b265780601f10612afb57610100808354040283529160200191612b26565b820191906000526020600020905b815481529060010190602001808311612b0957829003601f168201915b5050505050815260200160088201548152602001600982018054612b4990614ee8565b80601f0160208091040260200160405190810160405280929190818152602001828054612b7590614ee8565b8015612bc25780601f10612b9757610100808354040283529160200191612bc2565b820191906000526020600020905b815481529060010190602001808311612ba557829003601f168201915b5050509183525050600a8201546020820152600b82015460409091019060ff166007811115612c0157634e487b7160e01b600052602160045260246000fd5b6007811115612c2057634e487b7160e01b600052602160045260246000fd5b8152600b8201546001600160a01b0361010090910481166020830152600c83015481166040830152600d830154166060820152600e82018054608090920191612c6890614ee8565b80601f0160208091040260200160405190810160405280929190818152602001828054612c9490614ee8565b8015612ce15780601f10612cb657610100808354040283529160200191612ce1565b820191906000526020600020905b815481529060010190602001808311612cc457829003601f168201915b50505091909252505033604083018190526101c0830152509050600761016082018190525060008381526007602090815260409182902083518155818401516001820155918301516002830180546001600160a01b039283166001600160a01b031991821617909155606085015160038501805491909316911617905560808301518051849392612d79926004850192910190614888565b5060a08201518051612d95916005840191602090910190614888565b5060c08201518051612db1916006840191602090910190614888565b5060e08201518051612dcd916007840191602090910190614888565b5061010082015160088201556101208201518051612df5916009840191602090910190614888565b50610140820151600a820155610160820151600b8201805460ff19166001836007811115612e3357634e487b7160e01b600052602160045260246000fd5b0217905550610180820151600b820180546001600160a01b0392831661010002610100600160a81b03199091161790556101a0830151600c830180549183166001600160a01b03199283161790556101c0840151600d840180549190931691161790556101e08201518051612eb291600e840191602090910190614888565b50505060008381526007602052604080822060010154905190917f653d56639fee6b566a5c804764e9689de38645f0b733df89a36a1b7b42173dd891a2505050565b612efd33611371565b612f195760405162461bcd60e51b815260040161054990614c50565b610c6033614790565b612f2b33611e3e565b612f475760405162461bcd60e51b815260040161054990614bd3565b8060036000828152600760208190526040909120600b015460ff1690811115612f8057634e487b7160e01b600052602160045260246000fd5b14612f9d5760405162461bcd60e51b815260040161054990614cf3565b6000828152600760205260409020600a015434811115612fcf5760405162461bcd60e51b815260040161054990614c02565b60008381526007602090815260408083208151610200810183528154815260018201549381019390935260028101546001600160a01b0390811692840192909252600381015490911660608301526004810180548794939291608084019161303690614ee8565b80601f016020809104026020016040519081016040528092919081815260200182805461306290614ee8565b80156130af5780601f10613084576101008083540402835291602001916130af565b820191906000526020600020905b81548152906001019060200180831161309257829003601f168201915b505050505081526020016005820180546130c890614ee8565b80601f01602080910402602001604051908101604052809291908181526020018280546130f490614ee8565b80156131415780601f1061311657610100808354040283529160200191613141565b820191906000526020600020905b81548152906001019060200180831161312457829003601f168201915b5050505050815260200160068201805461315a90614ee8565b80601f016020809104026020016040519081016040528092919081815260200182805461318690614ee8565b80156131d35780601f106131a8576101008083540402835291602001916131d3565b820191906000526020600020905b8154815290600101906020018083116131b657829003601f168201915b505050505081526020016007820180546131ec90614ee8565b80601f016020809104026020016040519081016040528092919081815260200182805461321890614ee8565b80156132655780601f1061323a57610100808354040283529160200191613265565b820191906000526020600020905b81548152906001019060200180831161324857829003601f168201915b505050505081526020016008820154815260200160098201805461328890614ee8565b80601f01602080910402602001604051908101604052809291908181526020018280546132b490614ee8565b80156133015780601f106132d657610100808354040283529160200191613301565b820191906000526020600020905b8154815290600101906020018083116132e457829003601f168201915b5050509183525050600a8201546020820152600b82015460409091019060ff16600781111561334057634e487b7160e01b600052602160045260246000fd5b600781111561335f57634e487b7160e01b600052602160045260246000fd5b8152600b8201546001600160a01b0361010090910481166020830152600c83015481166040830152600d830154166060820152600e820180546080909201916133a790614ee8565b80601f01602080910402602001604051908101604052809291908181526020018280546133d390614ee8565b80156134205780601f106133f557610100808354040283529160200191613420565b820191906000526020600020905b81548152906001019060200180831161340357829003601f168201915b5050509190925250505060408181018051338083526101808501526004610160850181905260008a8152600760209081529490208551815584860151600182015592516002840180546001600160a01b039283166001600160a01b031991821617909155606087015160038601805491909316911617905560808501518051959650919486946134b593928501920190614888565b5060a082015180516134d1916005840191602090910190614888565b5060c082015180516134ed916006840191602090910190614888565b5060e08201518051613509916007840191602090910190614888565b5061010082015160088201556101208201518051613531916009840191602090910190614888565b50610140820151600a820155610160820151600b8201805460ff1916600183600781111561356f57634e487b7160e01b600052602160045260246000fd5b0217905550610180820151600b820180546001600160a01b0392831661010002610100600160a81b03199091161790556101a0830151600c830180549183166001600160a01b03199283161790556101c0840151600d840180549190931691161790556101e082015180516135ee91600e840191602090910190614888565b509050506000816001600160a01b031683610140015160405161361090614b68565b60006040518083038185875af1925050503d806000811461364d576040519150601f19603f3d011682016040523d82523d6000602084013e613652565b606091505b505090508061366057600080fd5b60008781526007602052604080822060010154905190917f92f64ca637d023f354075a4be751b169c1a8a9ccb6d33cdd0cb352054399572791a25050506000818152600760205260408120600a0154906136ba8234614ed1565b600084815260076020526040808220600d015490519293506001600160a01b03169183156108fc0291849190818181858888f19350505050158015613703573d6000803e3d6000fd5b50505050505050565b600080600080600061371d33612537565b9050600061372a33611e3e565b9050600061373733611371565b9050600061374433611e19565b9398929750909550919350915050565b61375c611e4b565b61376557600080fd5b610521816147d2565b61377733612537565b6137935760405162461bcd60e51b815260040161054990614cc9565b6000818152600760205260409020600301546001600160a01b03163381146137cd5760405162461bcd60e51b815260040161054990614bab565b8160016000828152600760208190526040909120600b015460ff169081111561380657634e487b7160e01b600052602160045260246000fd5b146138235760405162461bcd60e51b815260040161054990614d8a565b60008381526007602090815260408083208151610200810183528154815260018201549381019390935260028101546001600160a01b03908116928401929092526003810154909116606083015260048101805460808401919061388690614ee8565b80601f01602080910402602001604051908101604052809291908181526020018280546138b290614ee8565b80156138ff5780601f106138d4576101008083540402835291602001916138ff565b820191906000526020600020905b8154815290600101906020018083116138e257829003601f168201915b5050505050815260200160058201805461391890614ee8565b80601f016020809104026020016040519081016040528092919081815260200182805461394490614ee8565b80156139915780601f1061396657610100808354040283529160200191613991565b820191906000526020600020905b81548152906001019060200180831161397457829003601f168201915b505050505081526020016006820180546139aa90614ee8565b80601f01602080910402602001604051908101604052809291908181526020018280546139d690614ee8565b8015613a235780601f106139f857610100808354040283529160200191613a23565b820191906000526020600020905b815481529060010190602001808311613a0657829003601f168201915b50505050508152602001600782018054613a3c90614ee8565b80601f0160208091040260200160405190810160405280929190818152602001828054613a6890614ee8565b8015613ab55780601f10613a8a57610100808354040283529160200191613ab5565b820191906000526020600020905b815481529060010190602001808311613a9857829003601f168201915b5050505050815260200160088201548152602001600982018054613ad890614ee8565b80601f0160208091040260200160405190810160405280929190818152602001828054613b0490614ee8565b8015613b515780601f10613b2657610100808354040283529160200191613b51565b820191906000526020600020905b815481529060010190602001808311613b3457829003601f168201915b5050509183525050600a8201546020820152600b82015460409091019060ff166007811115613b9057634e487b7160e01b600052602160045260246000fd5b6007811115613baf57634e487b7160e01b600052602160045260246000fd5b8152600b8201546001600160a01b0361010090910481166020830152600c83015481166040830152600d830154166060820152600e82018054608090920191613bf790614ee8565b80601f0160208091040260200160405190810160405280929190818152602001828054613c2390614ee8565b8015613c705780601f10613c4557610100808354040283529160200191613c70565b820191906000526020600020905b815481529060010190602001808311613c5357829003601f168201915b5050509190925250919250600291505061016082018190525060008481526007602090815260409182902083518155818401516001820155918301516002830180546001600160a01b039283166001600160a01b031991821617909155606085015160038501805491909316911617905560808301518051849392613cfc926004850192910190614888565b5060a08201518051613d18916005840191602090910190614888565b5060c08201518051613d34916006840191602090910190614888565b5060e08201518051613d50916007840191602090910190614888565b5061010082015160088201556101208201518051613d78916009840191602090910190614888565b50610140820151600a820155610160820151600b8201805460ff19166001836007811115613db657634e487b7160e01b600052602160045260246000fd5b0217905550610180820151600b820180546001600160a01b0392831661010002610100600160a81b03199091161790556101a0830151600c830180549183166001600160a01b03199283161790556101c0840151600d840180549190931691161790556101e08201518051613e3591600e840191602090910190614888565b50505060008481526007602052604080822060010154905190917f9b3b66e2380b690bae22c73ef1428fb0c91e72fe14a4b6defa13035214187aff91a250505050565b613e8133611e3e565b613e9d5760405162461bcd60e51b815260040161054990614bd3565b8060046000828152600760208190526040909120600b015460ff1690811115613ed657634e487b7160e01b600052602160045260246000fd5b14613ef35760405162461bcd60e51b815260040161054990614d44565b60008281526007602090815260408083208151610200810183528154815260018201549381019390935260028101546001600160a01b039081169284019290925260038101549091166060830152600481018054608084019190613f5690614ee8565b80601f0160208091040260200160405190810160405280929190818152602001828054613f8290614ee8565b8015613fcf5780601f10613fa457610100808354040283529160200191613fcf565b820191906000526020600020905b815481529060010190602001808311613fb257829003601f168201915b50505050508152602001600582018054613fe890614ee8565b80601f016020809104026020016040519081016040528092919081815260200182805461401490614ee8565b80156140615780601f1061403657610100808354040283529160200191614061565b820191906000526020600020905b81548152906001019060200180831161404457829003601f168201915b5050505050815260200160068201805461407a90614ee8565b80601f01602080910402602001604051908101604052809291908181526020018280546140a690614ee8565b80156140f35780601f106140c8576101008083540402835291602001916140f3565b820191906000526020600020905b8154815290600101906020018083116140d657829003601f168201915b5050505050815260200160078201805461410c90614ee8565b80601f016020809104026020016040519081016040528092919081815260200182805461413890614ee8565b80156141855780601f1061415a57610100808354040283529160200191614185565b820191906000526020600020905b81548152906001019060200180831161416857829003601f168201915b50505050508152602001600882015481526020016009820180546141a890614ee8565b80601f01602080910402602001604051908101604052809291908181526020018280546141d490614ee8565b80156142215780601f106141f657610100808354040283529160200191614221565b820191906000526020600020905b81548152906001019060200180831161420457829003601f168201915b5050509183525050600a8201546020820152600b82015460409091019060ff16600781111561426057634e487b7160e01b600052602160045260246000fd5b600781111561427f57634e487b7160e01b600052602160045260246000fd5b8152600b8201546001600160a01b0361010090910481166020830152600c83015481166040830152600d830154166060820152600e820180546080909201916142c790614ee8565b80601f01602080910402602001604051908101604052809291908181526020018280546142f390614ee8565b80156143405780601f1061431557610100808354040283529160200191614340565b820191906000526020600020905b81548152906001019060200180831161432357829003601f168201915b50505091909252505060056101608301525060008481526007602090815260409182902083518155818401516001820155918301516002830180546001600160a01b039283166001600160a01b03199182161790915560608501516003850180549190931691161790556080830151805193945084936143c69260048501920190614888565b5060a082015180516143e2916005840191602090910190614888565b5060c082015180516143fe916006840191602090910190614888565b5060e0820151805161441a916007840191602090910190614888565b5061010082015160088201556101208201518051614442916009840191602090910190614888565b50610140820151600a820155610160820151600b8201805460ff1916600183600781111561448057634e487b7160e01b600052602160045260246000fd5b0217905550610180820151600b820180546001600160a01b0392831661010002610100600160a81b03199091161790556101a0830151600c830180549183166001600160a01b03199283161790556101c0840151600d840180549190931691161790556101e082015180516144ff91600e840191602090910190614888565b50505060008381526007602052604080822060010154905190917ff00b9a5725b80c54016f42114f6ed7792d22eecb116011c4afac29c57bef6c9591a2505050565b6001600160a01b03811661455457600080fd5b61455e82826145cf565b1561456857600080fd5b6001600160a01b0316600090815260209190915260409020805460ff19166001179055565b614598600182614541565b6040516001600160a01b038216907f28b26e7a3d20aedbc5f8f2ebf7da671c0491723a2b78f47a097b0e46dee0714290600090a250565b60006001600160a01b0382166145e457600080fd5b506001600160a01b03166000908152602091909152604090205460ff1690565b61460f600182614840565b6040516001600160a01b038216907fe3f5ed5f263f1f01764a96edfc7d025f511ec5f7d180e8816908b78bcf74f09890600090a250565b614651600282614840565b6040516001600160a01b038216907f126174f6cf49c81cdb4a9214c6b8f037bef55b4ec31e4fc776cea2a1c8a88d5990600090a250565b614693600282614541565b6040516001600160a01b038216907fddbf200aa634dc3fb81cfd68583dd1040d1c751d335e1d86b631bde3e977fea890600090a250565b6146d5600382614541565b6040516001600160a01b038216907f2e0ded4123377a3c2bc9a26f1717655a129e2f20752924d42e730ec89c83dbd090600090a250565b614717600382614840565b6040516001600160a01b038216907fa5e0f060af304ab17dd418c7927e3da3ae7868189bf387aee09ab179ccc572f290600090a250565b614759600482614541565b6040516001600160a01b038216907f71ae26cad02663e3d92efd6ec56031a80d74a20c0ab4183faa8bf262261c9baa90600090a250565b61479b600482614840565b6040516001600160a01b038216907fdb7176e79cffef81cb01767dd0447a0b24bb72ca9778d4b245581086b2a7e6db90600090a250565b6001600160a01b0381166147e557600080fd5b600080546040516001600160a01b03808516939216917f5c486528ec3e3f0ea91181cff8116f02bfa350e03b8b6f12e00765adbb5af85c91a3600080546001600160a01b0319166001600160a01b0392909216919091179055565b6001600160a01b03811661485357600080fd5b61485d82826145cf565b61486657600080fd5b6001600160a01b0316600090815260209190915260409020805460ff19169055565b82805461489490614ee8565b90600052602060002090601f0160209004810192826148b657600085556148fc565b82601f106148cf57805160ff19168380011785556148fc565b828001600101855582156148fc579182015b828111156148fc5782518255916020019190600101906148e1565b5061490892915061490c565b5090565b5b80821115614908576000815560010161490d565b80356001600160a01b038116811461138157600080fd5b600082601f830112614948578081fd5b813567ffffffffffffffff8082111561496357614963614f39565b604051601f8301601f19168101602001828111828210171561498757614987614f39565b60405282815284830160200186101561499e578384fd5b82602086016020830137918201602001929092529392505050565b6000602082840312156149ca578081fd5b6149d382614921565b9392505050565b6000602082840312156149eb578081fd5b5035919050565b600080600080600080600080610100898b031215614a0e578384fd5b88359750614a1e60208a01614921565b9650604089013567ffffffffffffffff80821115614a3a578586fd5b614a468c838d01614938565b975060608b0135915080821115614a5b578586fd5b614a678c838d01614938565b965060808b0135915080821115614a7c578586fd5b614a888c838d01614938565b955060a08b0135915080821115614a9d578485fd5b614aa98c838d01614938565b945060c08b0135915080821115614abe578384fd5b614aca8c838d01614938565b935060e08b0135915080821115614adf578283fd5b50614aec8b828c01614938565b9150509295985092959890939650565b60008060408385031215614b0e578182fd5b50508035926020909101359150565b60008151808452815b81811015614b4257602081850181015186830182015201614b26565b81811115614b535782602083870101525b50601f01601f19169290920160200192915050565b90565b6001600160a01b0391909116815260200190565b901515815260200190565b93151584529115156020840152151560408301521515606082015260800190565b6020808252600e908201526d34b73b30b634b21031b0b63632b960911b604082015260600190565b6020808252601590820152746e656564206469737472696275746f7220726f6c6560581b604082015260600190565b6020808252600f908201526e0dcdee840e0c2d2c840cadcdeeaced608b1b604082015260600190565b6020808252600b908201526a1b9bdd081cda1a5c1c195960aa1b604082015260600190565b6020808252601290820152716e6565642072657461696c657220726f6c6560701b604082015260600190565b6020808252600c908201526b1b9bdd081c9958d95a5d995960a21b604082015260600190565b6020808252600d908201526c1b9bdd081a185c9d995cdd1959609a1b604082015260600190565b60208082526010908201526f6e656564206661726d657220726f6c6560801b604082015260600190565b6020808252600b908201526a6e6f7420666f7253616c6560a81b604082015260600190565b6020808252601290820152716e65656420636f6e73756d657220726f6c6560701b604082015260600190565b6020808252600890820152671b9bdd081cdbdb1960c21b604082015260600190565b6020808252600a90820152691b9bdd081c1858dad95960b21b604082015260600190565b6020808252600d908201526c1b9bdd081c1c9bd8d95cdcd959609a1b604082015260600190565b90815260200190565b888152602081018890526001600160a01b0387811660408301528616606082015261010060808201819052600090614df483820188614b1d565b905082810360a0840152614e088187614b1d565b905082810360c0840152614e1c8186614b1d565b905082810360e0840152614e308185614b1d565b9b9a5050505050505050505050565b60006101408c83528b60208401528a6040840152806060840152614e658184018b614b1d565b608084018a905260a084018990526001600160a01b0388811660c086015287811660e086015286166101008501528381036101208501529050614ea88185614b1d565b9d9c50505050505050505050505050565b60008219821115614ecc57614ecc614f23565b500190565b600082821015614ee357614ee3614f23565b500390565b600281046001821680614efc57607f821691505b60208210811415614f1d57634e487b7160e01b600052602260045260246000fd5b50919050565b634e487b7160e01b600052601160045260246000fd5b634e487b7160e01b600052604160045260246000fdfea264697066735822122051afa6bfcdfa5231ab73e420da8560d643f15f6b841b644b15d3b7c5bcd89ec564736f6c63430008000033",
  "immutableReferences": {},
  "source": "// SPDX-License-Identifier: UNLICENSED\npragma solidity >=0.8.0;\n\nimport \"../coffeecore/Ownable.sol\";\nimport \"../coffeeaccesscontrol/ConsumerRole.sol\";\nimport \"../coffeeaccesscontrol/DistributorRole.sol\";\nimport \"../coffeeaccesscontrol/FarmerRole.sol\";\nimport \"../coffeeaccesscontrol/RetailerRole.sol\";\n\n// Define a contract 'Supplychain'\ncontract SupplyChain is\n    Ownable,\n    ConsumerRole,\n    DistributorRole,\n    FarmerRole,\n    RetailerRole\n{\n    // Define a variable called 'upc' for Universal Product Code (UPC)\n    uint256 upc;\n\n    // Define a variable called 'sku' for Stock Keeping Unit (SKU)\n    uint256 public sku;\n\n    // Define a public mapping 'items' that maps the UPC to an Item.\n    mapping(uint256 => Item) items;\n\n    // Define a public mapping 'itemsHistory' that maps the UPC to an array of TxHash,\n    // that track its journey through the supply chain -- to be sent from DApp.\n    mapping(uint256 => string[]) itemsHistory;\n\n    // Define enum 'State' with the following values:\n    enum State {\n        Harvested, // 0\n        Processed, // 1\n        Packed, // 2\n        ForSale, // 3\n        Sold, // 4\n        Shipped, // 5\n        Received, // 6\n        Purchased // 7\n    }\n\n    State constant defaultState = State.Harvested;\n\n    // Define a struct 'Item' with the following fields:\n    struct Item {\n        uint256 sku; // Stock Keeping Unit (SKU)\n        uint256 upc; // Universal Product Code (UPC), generated by the Farmer, goes on the package, can be verified by the Consumer\n        address ownerID; // Metamask-Ethereum address of the current owner as the product moves through 8 stages\n        address originFarmerID; // Metamask-Ethereum address of the Farmer\n        string originFarmName; // Farmer Name\n        string originFarmInformation; // Farmer Information\n        string originFarmLatitude; // Farm Latitude\n        string originFarmLongitude; // Farm Longitude\n        uint256 productID; // Product ID potentially a combination of upc + sku\n        string productNotes; // Product Notes\n        uint256 productPrice; // Product Price\n        State itemState; // Product State as represented in the enum above\n        address distributorID; // Metamask-Ethereum address of the Distributor\n        address retailerID; // Metamask-Ethereum address of the Retailer\n        address consumerID; // Metamask-Ethereum address of the Consumer\n        string farmerDocumentID; // IPFS content identifier for an uploaded document\n    }\n\n    // Define 8 events with the same 8 state values and accept 'upc' as input argument\n    event Harvested(uint256 indexed upc);\n    event Processed(uint256 indexed upc);\n    event Packed(uint256 indexed upc);\n    event ForSale(uint256 indexed upc);\n    event Sold(uint256 indexed upc);\n    event Shipped(uint256 indexed upc);\n    event Received(uint256 indexed upc);\n    event Purchased(uint256 indexed upc);\n\n    // Define a modifer that verifies the Caller\n    modifier verifyCaller(address _address) {\n        require(msg.sender == _address, \"invalid caller\");\n        _;\n    }\n\n    // Define a modifier that checks if the paid amount is sufficient to cover the price\n    modifier paidEnough(uint256 _price) {\n        require(msg.value >= _price, \"not paid enough\");\n        _;\n    }\n\n    // Define a modifier that checks the price and refunds the remaining balance\n    modifier checkValue(uint256 _upc) {\n        _;\n        uint256 _price = items[_upc].productPrice;\n        uint256 amountToReturn = msg.value - _price;\n        payable(items[_upc].consumerID).transfer(amountToReturn);\n    }\n\n    // Define a modifier that checks if an item.state of a upc is Harvested\n    modifier harvested(uint256 _upc) {\n        require(items[_upc].itemState == State.Harvested, \"not harvested\");\n        _;\n    }\n\n    // Define a modifier that checks if an item.state of a upc is Processed\n    modifier processed(uint256 _upc) {\n        require(items[_upc].itemState == State.Processed, \"not processed\");\n        _;\n    }\n\n    // Define a modifier that checks if an item.state of a upc is Packed\n    modifier packed(uint256 _upc) {\n        require(items[_upc].itemState == State.Packed, \"not packed\");\n        _;\n    }\n\n    // Define a modifier that checks if an item.state of a upc is ForSale\n    modifier forSale(uint256 _upc) {\n        require(items[_upc].itemState == State.ForSale, \"not forSale\");\n        _;\n    }\n\n    // Define a modifier that checks if an item.state of a upc is Sold\n    modifier sold(uint256 _upc) {\n        require(items[_upc].itemState == State.Sold, \"not sold\");\n        _;\n    }\n\n    // Define a modifier that checks if an item.state of a upc is Shipped\n    modifier shipped(uint256 _upc) {\n        require(items[_upc].itemState == State.Shipped, \"not shipped\");\n        _;\n    }\n\n    // Define a modifier that checks if an item.state of a upc is Received\n    modifier received(uint256 _upc) {\n        require(items[_upc].itemState == State.Received, \"not received\");\n        _;\n    }\n\n    // Define a modifier that checks if an item.state of a upc is Purchased\n    modifier purchased(uint256 _upc) {\n        require(items[_upc].itemState == State.Purchased, \"not purchased\");\n        _;\n    }\n\n    // In the constructor set 'owner' to the address that instantiated the contract\n    // and set 'sku' to 1\n    // and set 'upc' to 1\n    constructor() Ownable() {\n        sku = 1;\n        upc = 1;\n    }\n\n    // Define a function 'kill' if required\n    function kill() public {\n        if (msg.sender == origOwner) {\n            address payable _origOwner = payable(origOwner);\n            selfdestruct(_origOwner);\n        }\n    }\n\n    // Define a function 'harvestItem' that allows a farmer to mark an item 'Harvested'\n    function harvestItem(\n        uint256 _upc,\n        address _originFarmerID,\n        string memory _originFarmName,\n        string memory _originFarmInformation,\n        string memory _originFarmLatitude,\n        string memory _originFarmLongitude,\n        string memory _productNotes,\n        string memory _farmerDocumentID\n    ) public onlyFarmer() {\n        // Add the new item as part of Harvest\n        items[_upc] = Item(\n            sku,\n            _upc,\n            msg.sender,\n            _originFarmerID,\n            _originFarmName,\n            _originFarmInformation,\n            _originFarmLatitude,\n            _originFarmLongitude,\n            sku + _upc,\n            _productNotes,\n            0,\n            defaultState,\n            address(0),\n            address(0),\n            address(0),\n            _farmerDocumentID\n        );\n        // Increment sku\n        sku = sku + 1;\n        // Emit the appropriate event\n        emit Harvested(items[_upc].upc);\n    }\n\n    // Define a function 'processtItem' that allows a farmer to mark an item 'Processed'\n    function processItem(uint256 _upc)\n        public\n        onlyFarmer()\n        verifyCaller(items[_upc].originFarmerID)\n        harvested(_upc)\n    {\n        Item memory _item = items[_upc];\n        _item.itemState = State.Processed;\n        items[_upc] = _item;\n        // Emit the appropriate event\n        emit Processed(items[_upc].upc);\n    }\n\n    // Define a function 'packItem' that allows a farmer to mark an item 'Packed'\n    function packItem(uint256 _upc)\n        public\n        onlyFarmer()\n        verifyCaller(items[_upc].originFarmerID)\n        processed(_upc)\n    {\n        // Update the appropriate fields\n        Item memory _item = items[_upc];\n        _item.itemState = State.Packed;\n        items[_upc] = _item;\n        // Emit the appropriate event\n        emit Packed(items[_upc].upc);\n    }\n\n    // Define a function 'sellItem' that allows a farmer to mark an item 'ForSale'\n    function sellItem(uint256 _upc, uint256 _price)\n        public\n        onlyFarmer()\n        verifyCaller(items[_upc].originFarmerID)\n        packed(_upc)\n    {\n        // Update the appropriate fields\n        Item memory _item = items[_upc];\n        _item.productPrice = _price;\n        _item.itemState = State.ForSale;\n        items[_upc] = _item;\n        // Emit the appropriate event\n        emit ForSale(items[_upc].upc);\n    }\n\n    // Define a function 'buyItem' that allows the disributor to mark an item 'Sold'\n    // Use the above defined modifiers to check if the item is available for sale, if the buyer has paid enough,\n    // and any excess ether sent is refunded back to the buyer\n    function buyItem(uint256 _upc)\n        public\n        payable\n        onlyDistributor()\n        forSale(_upc)\n        paidEnough(items[_upc].productPrice)\n        checkValue(_upc)\n    {\n        Item memory _item = items[_upc];\n        // Update the appropriate fields - ownerID, distributorID, itemState\n        address oldOwner = _item.ownerID;\n        _item.ownerID = msg.sender;\n        _item.distributorID = msg.sender;\n        _item.itemState = State.Sold;\n        items[_upc] = _item;\n        // Transfer money to farmer\n        (bool success, ) = payable(oldOwner).call{value: _item.productPrice}(\n            \"\"\n        );\n        require(success);\n        // emit the appropriate event\n        emit Sold(items[_upc].upc);\n    }\n\n    // Define a function 'shipItem' that allows the distributor to mark an item 'Shipped'\n    // Use the above modifers to check if the item is sold\n    function shipItem(uint256 _upc) public onlyDistributor() sold(_upc) {\n        // Update the appropriate fields\n        Item memory _item = items[_upc];\n        _item.itemState = State.Shipped;\n        items[_upc] = _item;\n        // Emit the appropriate event\n        emit Shipped(items[_upc].upc);\n    }\n\n    // Define a function 'receiveItem' that allows the retailer to mark an item 'Received'\n    // Use the above modifiers to check if the item is shipped\n    function receiveItem(uint256 _upc) public onlyRetailer() shipped(_upc) {\n        // Update the appropriate fields - ownerID, retailerID, itemState\n        Item memory _item = items[_upc];\n        _item.ownerID = msg.sender;\n        _item.retailerID = msg.sender;\n        _item.itemState = State.Received;\n        items[_upc] = _item;\n        // Emit the appropriate event\n        emit Received(items[_upc].upc);\n    }\n\n    // Define a function 'purchaseItem' that allows the consumer to mark an item 'Purchased'\n    // Use the above modifiers to check if the item is received\n    function purchaseItem(uint256 _upc) public received(_upc) onlyConsumer() {\n        // Update the appropriate fields - ownerID, consumerID, itemState\n        Item memory _item = items[_upc];\n        _item.ownerID = msg.sender;\n        _item.consumerID = msg.sender;\n        _item.itemState = State.Purchased;\n        items[_upc] = _item;\n        // Emit the appropriate event\n        emit Purchased(items[_upc].upc);\n    }\n\n    // Define a function 'fetchItemBufferOne' that fetches the data\n    function fetchItemBufferOne(uint256 _upc)\n        public\n        view\n        returns (\n            uint256 itemSKU,\n            uint256 itemUPC,\n            address ownerID,\n            address originFarmerID,\n            string memory originFarmName,\n            string memory originFarmInformation,\n            string memory originFarmLatitude,\n            string memory originFarmLongitude\n        )\n    {\n        // Assign values to the 8 parameters\n        Item memory _item = items[_upc];\n\n        itemSKU = _item.sku;\n        itemUPC = _item.upc;\n        ownerID = _item.ownerID;\n        originFarmerID = _item.originFarmerID;\n        originFarmName = _item.originFarmName;\n        originFarmInformation = _item.originFarmInformation;\n        originFarmLatitude = _item.originFarmLatitude;\n        originFarmLongitude = _item.originFarmLongitude;\n\n        return (\n            itemSKU,\n            itemUPC,\n            ownerID,\n            originFarmerID,\n            originFarmName,\n            originFarmInformation,\n            originFarmLatitude,\n            originFarmLongitude\n        );\n    }\n\n    // Define a function 'fetchItemBufferTwo' that fetches the data\n    function fetchItemBufferTwo(uint256 _upc)\n        public\n        view\n        returns (\n            uint256 itemSKU,\n            uint256 itemUPC,\n            uint256 productID,\n            string memory productNotes,\n            uint256 productPrice,\n            uint256 itemState,\n            address distributorID,\n            address retailerID,\n            address consumerID,\n            string memory farmerDocumentID\n        )\n    {\n        // Assign values to the 9 parameters\n        Item memory _item = items[_upc];\n\n        itemSKU = _item.sku;\n        itemUPC = _item.upc;\n        productID = _item.productID;\n        productNotes = _item.productNotes;\n        productPrice = _item.productPrice;\n        itemState = uint256(_item.itemState);\n        distributorID = _item.distributorID;\n        retailerID = _item.retailerID;\n        consumerID = _item.consumerID;\n        farmerDocumentID = _item.farmerDocumentID;\n\n        return (\n            itemSKU,\n            itemUPC,\n            productID,\n            productNotes,\n            productPrice,\n            itemState,\n            distributorID,\n            retailerID,\n            consumerID,\n            farmerDocumentID\n        );\n    }\n\n    function getAccountTypes()\n        external\n        view\n        returns (\n            bool,\n            bool,\n            bool,\n            bool\n        )\n    {\n        bool isFarmer = isFarmer(msg.sender);\n        bool isDistributor = isDistributor(msg.sender);\n        bool isRetailer = isRetailer(msg.sender);\n        bool isConsumer = isConsumer(msg.sender);\n\n        return (isFarmer, isDistributor, isRetailer, isConsumer);\n    }\n}\n",
  "sourcePath": "/home/kstwa/Documents/coffee-supply-chain/project-6/contracts/coffeebase/SupplyChain.sol",
  "compiler": {
    "name": "solc",
    "version": "0.8.0+commit.c7dfd78e.Emscripten.clang"
  },
  "schemaVersion": "3.4.1",
  "updatedAt": "2021-07-25T07:52:52.573Z",
  "devdoc": {
    "kind": "dev",
    "methods": {},
    "version": 1
  },
  "userdoc": {
    "kind": "user",
    "methods": {
      "isOwner()": {
        "notice": "Check if the calling address is the owner of the contract"
      },
      "owner()": {
        "notice": "Look up the address of the owner"
      },
      "renounceOwnership()": {
        "notice": "Define a function to renounce ownerhip"
      },
      "transferOwnership(address)": {
        "notice": "Define a public function to transfer ownership"
      }
    },
    "version": 1
  }
}